{
  "contractName": "Contract",
  "abi": [
    {
      "constant": false,
      "inputs": [
        {
          "internalType": "string",
          "name": "uuid",
          "type": "string"
        },
        {
          "internalType": "int256",
          "name": "lastTime",
          "type": "int256"
        }
      ],
      "name": "initUser",
      "outputs": [],
      "payable": false,
      "stateMutability": "nonpayable",
      "type": "function"
    },
    {
      "constant": true,
      "inputs": [
        {
          "internalType": "int256",
          "name": "dividee",
          "type": "int256"
        },
        {
          "internalType": "int256",
          "name": "divider",
          "type": "int256"
        }
      ],
      "name": "divide",
      "outputs": [
        {
          "internalType": "int256",
          "name": "",
          "type": "int256"
        }
      ],
      "payable": false,
      "stateMutability": "pure",
      "type": "function"
    },
    {
      "constant": false,
      "inputs": [
        {
          "internalType": "string",
          "name": "uuid",
          "type": "string"
        },
        {
          "internalType": "int256",
          "name": "time",
          "type": "int256"
        },
        {
          "internalType": "bool",
          "name": "result",
          "type": "bool"
        },
        {
          "internalType": "bool",
          "name": "isTest",
          "type": "bool"
        }
      ],
      "name": "revalueByValidation",
      "outputs": [],
      "payable": false,
      "stateMutability": "nonpayable",
      "type": "function"
    },
    {
      "constant": false,
      "inputs": [
        {
          "internalType": "string",
          "name": "uuid",
          "type": "string"
        }
      ],
      "name": "clearValidation",
      "outputs": [],
      "payable": false,
      "stateMutability": "nonpayable",
      "type": "function"
    },
    {
      "constant": true,
      "inputs": [
        {
          "internalType": "string",
          "name": "uuid",
          "type": "string"
        }
      ],
      "name": "getQuality",
      "outputs": [
        {
          "internalType": "int256",
          "name": "",
          "type": "int256"
        }
      ],
      "payable": false,
      "stateMutability": "view",
      "type": "function"
    },
    {
      "constant": true,
      "inputs": [
        {
          "internalType": "string",
          "name": "uuid",
          "type": "string"
        }
      ],
      "name": "getInterval",
      "outputs": [
        {
          "internalType": "int256",
          "name": "",
          "type": "int256"
        },
        {
          "internalType": "int256",
          "name": "",
          "type": "int256"
        },
        {
          "internalType": "int256",
          "name": "",
          "type": "int256"
        },
        {
          "internalType": "int256",
          "name": "",
          "type": "int256"
        },
        {
          "internalType": "int256",
          "name": "",
          "type": "int256"
        },
        {
          "internalType": "int256",
          "name": "",
          "type": "int256"
        }
      ],
      "payable": false,
      "stateMutability": "view",
      "type": "function"
    }
  ],
  "bytecode": "0x60806040526005600155600280557ffffffffffffffffffffffffffffffffffffffffffffffffffffffffffffffffd600355600560045560026005557ffffffffffffffffffffffffffffffffffffffffffffffffffffffffffffffffd60065534801561006b57600080fd5b506118798061007b6000396000f3fe608060405234801561001057600080fd5b50600436106100625760003560e01c80631464dc84146100675780632c7067dc1461014457806332c267e214610236578063764291001461030557806397675615146103ca578063f598423614610485575b600080fd5b6101426004803603608081101561007d57600080fd5b810190808035906020019064010000000081111561009a57600080fd5b8201836020820111156100ac57600080fd5b803590602001918460018302840111640100000000831117156100ce57600080fd5b91908080601f016020809104026020016040519081016040528093929190818152602001838380828437600081840152601f19601f820116905080830192505050505050509192919290803590602001909291908035151590602001909291908035151590602001909291905050506104d1565b005b6101fd6004803603602081101561015a57600080fd5b810190808035906020019064010000000081111561017757600080fd5b82018360208201111561018957600080fd5b803590602001918460018302840111640100000000831117156101ab57600080fd5b91908080601f016020809104026020016040519081016040528093929190818152602001838380828437600081840152601f19601f820116905080830192505050505050509192919290505050610e54565b60405180878152602001868152602001858152602001848152602001838152602001828152602001965050505050505060405180910390f35b6102ef6004803603602081101561024c57600080fd5b810190808035906020019064010000000081111561026957600080fd5b82018360208201111561027b57600080fd5b8035906020019184600183028401116401000000008311171561029d57600080fd5b91908080601f016020809104026020016040519081016040528093929190818152602001838380828437600081840152601f19601f8201169050808301925050505050505091929192905050506111ff565b6040518082815260200191505060405180910390f35b6103c86004803603604081101561031b57600080fd5b810190808035906020019064010000000081111561033857600080fd5b82018360208201111561034a57600080fd5b8035906020019184600183028401116401000000008311171561036c57600080fd5b91908080601f016020809104026020016040519081016040528093929190818152602001838380828437600081840152601f19601f820116905080830192505050505050509192919290803590602001909291905050506112f3565b005b610483600480360360208110156103e057600080fd5b81019080803590602001906401000000008111156103fd57600080fd5b82018360208201111561040f57600080fd5b8035906020019184600183028401116401000000008311171561043157600080fd5b91908080601f016020809104026020016040519081016040528093929190818152602001838380828437600081840152601f19601f820116905080830192505050505050509192919290505050611625565b005b6104bb6004803603604081101561049b57600080fd5b8101908080359060200190929190803590602001909291905050506117f4565b6040518082815260200191505060405180910390f35b60006011856040518082805190602001908083835b6020831061050957805182526020820191506020810190506020830392506104e6565b6001836020036101000a03801982511681845116808217855250505050505090500191505090815260200160405180910390206004015490506000809050600060016011886040518082805190602001908083835b60208310610581578051825260208201915060208101905060208303925061055e565b6001836020036101000a038019825116818451168082178552505050505050905001915050908152602001604051809103902060010154019050806011886040518082805190602001908083835b602083106105f257805182526020820191506020810190506020830392506105cf565b6001836020036101000a038019825116818451168082178552505050505050905001915050908152602001604051809103902060010181905550856011886040518082805190602001908083835b602083106106635780518252602082019150602081019050602083039250610640565b6001836020036101000a038019825116818451168082178552505050505050905001915050908152602001604051809103902060030160008381526020019081526020016000208190555060006011886040518082805190602001908083835b602083106106e657805182526020820191506020810190506020830392506106c3565b6001836020036101000a03801982511681845116808217855250505050505090500191505090815260200160405180910390206003016000600184038152602001908152602001600020549050600060011515861515141561074c578188039050610755565b60038289030190505b8060118a6040518082805190602001908083835b6020831061078c5780518252602082019150602081019050602083039250610769565b6001836020036101000a038019825116818451168082178552505050505050905001915050908152602001604051809103902060080181905550600060118a6040518082805190602001908083835b602083106107fe57805182526020820191506020810190506020830392506107db565b6001836020036101000a038019825116818451168082178552505050505050905001915050908152602001604051809103902060050154905060008114156109be57600160118b6040518082805190602001908083835b602083106108785780518252602082019150602081019050602083039250610855565b6001836020036101000a03801982511681845116808217855250505050505090500191505090815260200160405180910390206005018190555060011515881515141561093e57606460118b6040518082805190602001908083835b602083106108f757805182526020820191506020810190506020830392506108d4565b6001836020036101000a03801982511681845116808217855250505050505090500191505090815260200160405180910390206006018190555060c86002540294506109b9565b606460118b6040518082805190602001908083835b602083106109765780518252602082019150602081019050602083039250610953565b6001836020036101000a03801982511681845116808217855250505050505090500191505090815260200160405180910390206007018190555060c86003540294505b610d2f565b600115158815151415610b4357600060118b6040518082805190602001908083835b60208310610a0357805182526020820191506020810190506020830392506109e0565b6001836020036101000a0380198251168184511680821785525050505050509050019150509081526020016040518091039020600601549050610a4e606483830201600184016117f4565b905060118b6040518082805190602001908083835b60208310610a865780518252602082019150602081019050602083039250610a63565b6001836020036101000a0380198251168184511680821785525050505050509050019150509081526020016040518091039020600701546003540260648201600254020195508060118c6040518082805190602001908083835b60208310610b035780518252602082019150602081019050602083039250610ae0565b6001836020036101000a03801982511681845116808217855250505050505090500191505090815260200160405180910390206006018190555050610cb7565b600060118b6040518082805190602001908083835b60208310610b7b5780518252602082019150602081019050602083039250610b58565b6001836020036101000a0380198251168184511680821785525050505050509050019150509081526020016040518091039020600701549050610bc6606483830201600184016117f4565b9050606481016003540260118c6040518082805190602001908083835b60208310610c065780518252602082019150602081019050602083039250610be3565b6001836020036101000a038019825116818451168082178552505050505050905001915050908152602001604051809103902060060154600254020195508060118c6040518082805190602001908083835b60208310610c7b5780518252602082019150602081019050602083039250610c58565b6001836020036101000a038019825116818451168082178552505050505050905001915050908152602001604051809103902060070181905550505b6001810190508060118b6040518082805190602001908083835b60208310610cf45780518252602082019150602081019050602083039250610cd1565b6001836020036101000a0380198251168184511680821785525050505050509050019150509081526020016040518091039020600501819055505b84600154029450610d4385836064026117f4565b945084860195506064861315610d5857606495505b6000861215610d6657600095505b8460118b6040518082805190602001908083835b60208310610d9d5780518252602082019150602081019050602083039250610d7a565b6001836020036101000a0380198251168184511680821785525050505050509050019150509081526020016040518091039020600901819055508560118b6040518082805190602001908083835b60208310610e0e5780518252602082019150602081019050602083039250610deb565b6001836020036101000a03801982511681845116808217855250505050505090500191505090815260200160405180910390206004018190555050505050505050505050565b60008060008060008060006011886040518082805190602001908083835b60208310610e955780518252602082019150602081019050602083039250610e72565b6001836020036101000a0380198251168184511680821785525050505050509050019150509081526020016040518091039020600201541415610f5b577fffffffffffffffffffffffffffffffffffffffffffffffffffffffffffffffff807fffffffffffffffffffffffffffffffffffffffffffffffffffffffffffffffff807fffffffffffffffffffffffffffffffffffffffffffffffffffffffffffffffff808595508494508393508292508191508090509550955095509550955095506111f6565b6011876040518082805190602001908083835b60208310610f915780518252602082019150602081019050602083039250610f6e565b6001836020036101000a0380198251168184511680821785525050505050509050019150509081526020016040518091039020600801546011886040518082805190602001908083835b60208310610ffe5780518252602082019150602081019050602083039250610fdb565b6001836020036101000a0380198251168184511680821785525050505050509050019150509081526020016040518091039020600501546011896040518082805190602001908083835b6020831061106b5780518252602082019150602081019050602083039250611048565b6001836020036101000a03801982511681845116808217855250505050505090500191505090815260200160405180910390206006015460118a6040518082805190602001908083835b602083106110d857805182526020820191506020810190506020830392506110b5565b6001836020036101000a03801982511681845116808217855250505050505090500191505090815260200160405180910390206007015460118b6040518082805190602001908083835b602083106111455780518252602082019150602081019050602083039250611122565b6001836020036101000a03801982511681845116808217855250505050505090500191505090815260200160405180910390206009015460118c6040518082805190602001908083835b602083106111b2578051825260208201915060208101905060208303925061118f565b6001836020036101000a0380198251168184511680821785525050505050509050019150509081526020016040518091039020600401549550955095509550955095505b91939550919395565b6000806011836040518082805190602001908083835b602083106112385780518252602082019150602081019050602083039250611215565b6001836020036101000a038019825116818451168082178552505050505050905001915050908152602001604051809103902060020154141561127e57600090506112ee565b6011826040518082805190602001908083835b602083106112b45780518252602082019150602081019050602083039250611291565b6001836020036101000a03801982511681845116808217855250505050505090500191505090815260200160405180910390206004015490505b919050565b60006011836040518082805190602001908083835b6020831061132b5780518252602082019150602081019050602083039250611308565b6001836020036101000a03801982511681845116808217855250505050505090500191505090815260200160405180910390206001018190555060016011836040518082805190602001908083835b6020831061139d578051825260208201915060208101905060208303925061137a565b6001836020036101000a03801982511681845116808217855250505050505090500191505090815260200160405180910390206002018190555060286011836040518082805190602001908083835b6020831061140f57805182526020820191506020810190506020830392506113ec565b6001836020036101000a03801982511681845116808217855250505050505090500191505090815260200160405180910390206004018190555060006011836040518082805190602001908083835b60208310611481578051825260208201915060208101905060208303925061145e565b6001836020036101000a03801982511681845116808217855250505050505090500191505090815260200160405180910390206005018190555060006011836040518082805190602001908083835b602083106114f357805182526020820191506020810190506020830392506114d0565b6001836020036101000a03801982511681845116808217855250505050505090500191505090815260200160405180910390206006018190555060006011836040518082805190602001908083835b602083106115655780518252602082019150602081019050602083039250611542565b6001836020036101000a038019825116818451168082178552505050505050905001915050908152602001604051809103902060070181905550806011836040518082805190602001908083835b602083106115d657805182526020820191506020810190506020830392506115b3565b6001836020036101000a03801982511681845116808217855250505050505090500191505090815260200160405180910390206003016000808152602001908152602001600020819055505050565b60016011826040518082805190602001908083835b6020831061165d578051825260208201915060208101905060208303925061163a565b6001836020036101000a03801982511681845116808217855250505050505090500191505090815260200160405180910390206002015414156117f15760006011826040518082805190602001908083835b602083106116d257805182526020820191506020810190506020830392506116af565b6001836020036101000a03801982511681845116808217855250505050505090500191505090815260200160405180910390206005018190555060006011826040518082805190602001908083835b602083106117445780518252602082019150602081019050602083039250611721565b6001836020036101000a03801982511681845116808217855250505050505090500191505090815260200160405180910390206006018190555060006011826040518082805190602001908083835b602083106117b65780518252602082019150602081019050602083039250611793565b6001836020036101000a0380198251168184511680821785525050505050509050019150509081526020016040518091039020600701819055505b50565b6000806002838161180157fe5b059050600083858161180f57fe5b07905081811261182f57600184868161182457fe5b05019250505061183e565b83858161183857fe5b05925050505b9291505056fea265627a7a72315820c349e173ab0d6678e2f73eefa96932074caa2c068e053682addf39e536da424464736f6c63430005100032",
  "source": "pragma solidity ^0.5.16;\r\n\r\ncontract Contract {\r\n    uint total;\r\n    \r\n    // Time damping\r\n    int delta_rev = 5;\r\n    // Validation\r\n    int theta_s = 2;\r\n    int theta_f = -3;\r\n    // Message\r\n    //mapping(int => int) e_pow = [];\r\n    //int gamma = 0.2;\r\n    int c0 = 5;\r\n    int alpha = 2;\r\n    int beta = -3;\r\n    \r\n    struct user{\r\n        string uuid;\r\n        int num;\r\n        //bool isUsed;\r\n        uint status;\r\n        mapping(int => int) time;\r\n        int quality;\r\n        // Validation\r\n        int validNum;\r\n        // rate*100\r\n        int successValid;\r\n        int failValid;\r\n        // Message\r\n        int interval;\r\n        int dquality;\r\n    }\r\n    \r\n    user tempuser;\r\n    \r\n    mapping(string => user) users;\r\n    \r\n    function initUser(string memory uuid, int lastTime) public {\r\n    \t//if(users[uuid].status == 0) {\r\n    \t\tusers[uuid].num = 0;\r\n           \tusers[uuid].status = 1;\r\n           \tusers[uuid].quality = 40;\r\n           \tusers[uuid].validNum = 0;\r\n           \tusers[uuid].successValid = 0;\r\n           \tusers[uuid].failValid = 0;\r\n           \tusers[uuid].time[0] = lastTime;\r\n    \t//}\r\n    }\r\n    \r\n    function divide(int dividee, int divider) public pure returns(int) {\r\n    \tint round = divider / 2;\r\n    \tint remain = dividee % divider;\r\n    \tif(remain >= round) {\r\n    \t\treturn dividee / divider + 1;\r\n    \t}\r\n    \telse {\r\n    \t\treturn dividee / divider;\r\n    \t}\r\n    }\r\n    \r\n    function revalueByValidation(string memory uuid, int time, bool result, bool isTest) public{  \t\r\n    \tint quality = users[uuid].quality;\r\n\t\tint dquality = 0;\r\n\t\t\r\n    \tint num = users[uuid].num + 1;\r\n       \tusers[uuid].num = num;\r\n\t\t\r\n\t\t// time\r\n\t\tusers[uuid].time[num] = time;\r\n\t\tint lastTime = users[uuid].time[num-1];\r\n\t\tint interval;\r\n\t\tif(isTest == true) {\r\n\t\t\tinterval = time - lastTime;\r\n\t\t}\r\n\t\telse {\r\n\t\t\tinterval = time - lastTime + 3;\r\n\t\t}\r\n\t\tusers[uuid].interval = interval;\r\n\t\t//if(interval < 5) {\r\n\t\t\t//interval = 5;\r\n\t\t//}\r\n\t\t// result\r\n\t\tint validNum = users[uuid].validNum;\r\n\t\tif(validNum == 0) {\r\n\t\t\tusers[uuid].validNum = 1;\r\n\t\t\tif(result == true) {\r\n\t\t\t\tusers[uuid].successValid = 100;\r\n\t\t\t\tdquality = theta_s * 200;\r\n\t\t\t}\r\n\t\t\telse {\r\n\t\t\t\tusers[uuid].failValid = 100;\r\n\t\t\t\tdquality = theta_f * 200;\r\n\t\t\t}\r\n\t\t}\r\n\t\telse {\r\n\t\t\tif(result == true) {\r\n\t\t\t\tint successValid = users[uuid].successValid;\r\n\t\t\t\tsuccessValid = divide(successValid*validNum + 100, validNum + 1);\r\n\t\t\t\t//successValid = (successValid*validNum + 100) / (validNum + 1);\r\n\t\t\t\tdquality = theta_s * (successValid + 100) + theta_f * users[uuid].failValid;\r\n\t\t\t\tusers[uuid].successValid = successValid;\r\n\t\t\t}\r\n\t\t\telse {\r\n\t\t\t\tint failValid = users[uuid].failValid;\r\n\t\t\t\tfailValid = divide(failValid*validNum + 100, validNum + 1);\r\n\t\t\t\t//failValid = (failValid*validNum + 100) / (validNum + 1);\r\n\t\t\t\tdquality = theta_s * users[uuid].successValid + theta_f * (failValid + 100);\r\n\t\t\t\tusers[uuid].failValid = failValid;\r\n\t\t\t}\r\n\t\t\tvalidNum = validNum + 1;\r\n\t\t\tusers[uuid].validNum = validNum;\r\n\t\t}\r\n\t\tdquality = delta_rev * dquality;\r\n\t\tdquality = divide(dquality, 100*interval);\r\n\t\tquality = quality + dquality;\r\n\t\t\r\n\t\tif (quality > 100) {\r\n\t\t    quality = 100;\r\n\t\t}\r\n\t\tif (quality < 0) {\r\n\t\t    quality = 0;\r\n\t\t}\r\n\t\tusers[uuid].dquality = dquality;\r\n\t\tusers[uuid].quality = quality;\r\n    }\r\n    \r\n    function clearValidation(string memory uuid) public {\r\n    \tif(users[uuid].status == 1) {\r\n    \t\tusers[uuid].validNum = 0;\r\n    \t\tusers[uuid].successValid = 0;\r\n    \t\tusers[uuid].failValid = 0;\r\n    \t}\r\n    }\r\n    \r\n    function getQuality(string memory uuid) public view returns (int) {\r\n        if (users[uuid].status == 0) {\r\n            return 0;\r\n        }\r\n        return users[uuid].quality;\r\n    }\r\n    \r\n    function getInterval(string memory uuid) public view returns (int, int, int, int, int, int) {\r\n        if (users[uuid].status == 0) {\r\n            return (-1, -1, -1, -1, -1, -1);\r\n        }\r\n        return (users[uuid].interval, users[uuid].validNum, users[uuid].successValid, users[uuid].failValid, users[uuid].dquality, users[uuid].quality);\r\n    }\r\n    \r\n}\r\n\r\n",
  "sourcePath": "/lwq_test/contracts/Contract.sol",
  "compiler": {
    "name": "solc",
    "version": "0.5.16+commit.9c3226ce.Emscripten.clang"
  },
  "schemaVersion": "3.3.3",
  "updatedAt": "2021-06-07T01:05:54.689Z",
  "networkType": "ethereum",
  "devdoc": {
    "methods": {}
  },
  "userdoc": {
    "methods": {}
  }
}